{
  "_format": "hh-sol-artifact-1",
  "contractName": "Voting",
  "sourceName": "contracts/Voting.sol",
  "abi": [
    {
      "inputs": [],
      "stateMutability": "nonpayable",
      "type": "constructor"
    },
    {
      "inputs": [
        {
          "internalType": "string",
          "name": "_name",
          "type": "string"
        }
      ],
      "name": "addCandidate",
      "outputs": [],
      "stateMutability": "nonpayable",
      "type": "function"
    },
    {
      "inputs": [],
      "name": "admin",
      "outputs": [
        {
          "internalType": "address",
          "name": "",
          "type": "address"
        }
      ],
      "stateMutability": "view",
      "type": "function"
    },
    {
      "inputs": [
        {
          "internalType": "uint256",
          "name": "",
          "type": "uint256"
        }
      ],
      "name": "candidates",
      "outputs": [
        {
          "internalType": "uint256",
          "name": "id",
          "type": "uint256"
        },
        {
          "internalType": "string",
          "name": "name",
          "type": "string"
        },
        {
          "internalType": "uint256",
          "name": "voteCount",
          "type": "uint256"
        }
      ],
      "stateMutability": "view",
      "type": "function"
    },
    {
      "inputs": [],
      "name": "candidatesCount",
      "outputs": [
        {
          "internalType": "uint256",
          "name": "",
          "type": "uint256"
        }
      ],
      "stateMutability": "view",
      "type": "function"
    },
    {
      "inputs": [],
      "name": "endVoting",
      "outputs": [],
      "stateMutability": "nonpayable",
      "type": "function"
    },
    {
      "inputs": [
        {
          "internalType": "uint256",
          "name": "_id",
          "type": "uint256"
        }
      ],
      "name": "getCandidate",
      "outputs": [
        {
          "internalType": "uint256",
          "name": "",
          "type": "uint256"
        },
        {
          "internalType": "string",
          "name": "",
          "type": "string"
        },
        {
          "internalType": "uint256",
          "name": "",
          "type": "uint256"
        }
      ],
      "stateMutability": "view",
      "type": "function"
    },
    {
      "inputs": [],
      "name": "getWinner",
      "outputs": [
        {
          "internalType": "string",
          "name": "winnerName",
          "type": "string"
        },
        {
          "internalType": "uint256",
          "name": "winnerVotes",
          "type": "uint256"
        }
      ],
      "stateMutability": "view",
      "type": "function"
    },
    {
      "inputs": [
        {
          "internalType": "address",
          "name": "",
          "type": "address"
        }
      ],
      "name": "hasVoted",
      "outputs": [
        {
          "internalType": "bool",
          "name": "",
          "type": "bool"
        }
      ],
      "stateMutability": "view",
      "type": "function"
    },
    {
      "inputs": [],
      "name": "resetElection",
      "outputs": [],
      "stateMutability": "nonpayable",
      "type": "function"
    },
    {
      "inputs": [],
      "name": "startVoting",
      "outputs": [],
      "stateMutability": "nonpayable",
      "type": "function"
    },
    {
      "inputs": [
        {
          "internalType": "uint256",
          "name": "_candidateId",
          "type": "uint256"
        }
      ],
      "name": "vote",
      "outputs": [],
      "stateMutability": "nonpayable",
      "type": "function"
    },
    {
      "inputs": [],
      "name": "votingEnded",
      "outputs": [
        {
          "internalType": "bool",
          "name": "",
          "type": "bool"
        }
      ],
      "stateMutability": "view",
      "type": "function"
    },
    {
      "inputs": [],
      "name": "votingStarted",
      "outputs": [
        {
          "internalType": "bool",
          "name": "",
          "type": "bool"
        }
      ],
      "stateMutability": "view",
      "type": "function"
    }
  ],
  "bytecode": "0x6080604052348015600f57600080fd5b50336000806101000a81548173ffffffffffffffffffffffffffffffffffffffff021916908373ffffffffffffffffffffffffffffffffffffffff1602179055506118458061005f6000396000f3fe608060405234801561001057600080fd5b50600436106100cf5760003560e01c8063462e91ec1161008c5780639d5a0529116100665780639d5a052914610205578063c3403ddf14610223578063e8f305231461022d578063f851a44014610237576100cf565b8063462e91ec146101ac57806383d948b7146101c85780638e7ea5b2146101e6576100cf565b80630121b93f146100d457806309eef43e146100f05780631ec6b60a146101205780632d35a8a21461012a5780633477ee2e1461014857806335b8e8201461017a575b600080fd5b6100ee60048036038101906100e99190610d30565b610255565b005b61010a60048036038101906101059190610dbb565b610459565b6040516101179190610e03565b60405180910390f35b610128610479565b005b61013261056a565b60405161013f9190610e2d565b60405180910390f35b610162600480360381019061015d9190610d30565b610570565b60405161017193929190610ed8565b60405180910390f35b610194600480360381019061018f9190610d30565b610622565b6040516101a393929190610ed8565b60405180910390f35b6101c660048036038101906101c1919061104b565b61070c565b005b6101d0610865565b6040516101dd9190610e03565b60405180910390f35b6101ee610878565b6040516101fc929190611094565b60405180910390f35b61020d610a32565b60405161021a9190610e03565b60405180910390f35b61022b610a45565b005b610235610b3f565b005b61023f610c65565b60405161024c91906110d3565b60405180910390f35b600060149054906101000a900460ff166102a4576040517f08c379a000000000000000000000000000000000000000000000000000000000815260040161029b9061113a565b60405180910390fd5b600060159054906101000a900460ff16156102f4576040517f08c379a00000000000000000000000000000000000000000000000000000000081526004016102eb906111a6565b60405180910390fd5b600260003373ffffffffffffffffffffffffffffffffffffffff1673ffffffffffffffffffffffffffffffffffffffff16815260200190815260200160002060009054906101000a900460ff1615610381576040517f08c379a000000000000000000000000000000000000000000000000000000000815260040161037890611212565b60405180910390fd5b60008111801561039357506003548111155b6103d2576040517f08c379a00000000000000000000000000000000000000000000000000000000081526004016103c99061127e565b60405180910390fd5b6001600260003373ffffffffffffffffffffffffffffffffffffffff1673ffffffffffffffffffffffffffffffffffffffff16815260200190815260200160002060006101000a81548160ff021916908315150217905550600160008281526020019081526020016000206002016000815480929190610451906112cd565b919050555050565b60026020528060005260406000206000915054906101000a900460ff1681565b60008054906101000a900473ffffffffffffffffffffffffffffffffffffffff1673ffffffffffffffffffffffffffffffffffffffff163373ffffffffffffffffffffffffffffffffffffffff1614610507576040517f08c379a00000000000000000000000000000000000000000000000000000000081526004016104fe90611361565b60405180910390fd5b6002600354101561054d576040517f08c379a0000000000000000000000000000000000000000000000000000000008152600401610544906113cd565b60405180910390fd5b6001600060146101000a81548160ff021916908315150217905550565b60035481565b60016020528060005260406000206000915090508060000154908060010180546105999061141c565b80601f01602080910402602001604051908101604052809291908181526020018280546105c59061141c565b80156106125780601f106105e757610100808354040283529160200191610612565b820191906000526020600020905b8154815290600101906020018083116105f557829003601f168201915b5050505050908060020154905083565b6000606060008060016000868152602001908152602001600020604051806060016040529081600082015481526020016001820180546106619061141c565b80601f016020809104026020016040519081016040528092919081815260200182805461068d9061141c565b80156106da5780601f106106af576101008083540402835291602001916106da565b820191906000526020600020905b8154815290600101906020018083116106bd57829003601f168201915b505050505081526020016002820154815250509050806000015181602001518260400151935093509350509193909250565b60008054906101000a900473ffffffffffffffffffffffffffffffffffffffff1673ffffffffffffffffffffffffffffffffffffffff163373ffffffffffffffffffffffffffffffffffffffff161461079a576040517f08c379a000000000000000000000000000000000000000000000000000000000815260040161079190611361565b60405180910390fd5b600060149054906101000a900460ff16156107ea576040517f08c379a00000000000000000000000000000000000000000000000000000000081526004016107e190611499565b60405180910390fd5b600360008154809291906107fd906112cd565b91905055506040518060600160405280600354815260200182815260200160008152506001600060035481526020019081526020016000206000820151816000015560208201518160010190816108549190611665565b506040820151816002015590505050565b600060149054906101000a900460ff1681565b606060008060159054906101000a900460ff166108ca576040517f08c379a00000000000000000000000000000000000000000000000000000000081526004016108c190611783565b60405180910390fd5b6000806000600190505b600354811161092b57826001600083815260200190815260200160002060020154111561091857600160008281526020019081526020016000206002015492508091505b8080610923906112cd565b9150506108d4565b506000810361096f576040517f08c379a0000000000000000000000000000000000000000000000000000000008152600401610966906117ef565b60405180910390fd5b6001600082815260200190815260200160002060010160016000838152602001908152602001600020600201548180546109a89061141c565b80601f01602080910402602001604051908101604052809291908181526020018280546109d49061141c565b8015610a215780601f106109f657610100808354040283529160200191610a21565b820191906000526020600020905b815481529060010190602001808311610a0457829003601f168201915b505050505091509350935050509091565b600060159054906101000a900460ff1681565b60008054906101000a900473ffffffffffffffffffffffffffffffffffffffff1673ffffffffffffffffffffffffffffffffffffffff163373ffffffffffffffffffffffffffffffffffffffff1614610ad3576040517f08c379a0000000000000000000000000000000000000000000000000000000008152600401610aca90611361565b60405180910390fd5b600060149054906101000a900460ff16610b22576040517f08c379a0000000000000000000000000000000000000000000000000000000008152600401610b199061113a565b60405180910390fd5b6001600060156101000a81548160ff021916908315150217905550565b60008054906101000a900473ffffffffffffffffffffffffffffffffffffffff1673ffffffffffffffffffffffffffffffffffffffff163373ffffffffffffffffffffffffffffffffffffffff1614610bcd576040517f08c379a0000000000000000000000000000000000000000000000000000000008152600401610bc490611361565b60405180910390fd5b6000600190505b6003548111610c265760016000828152602001908152602001600020600080820160009055600182016000610c099190610c89565b600282016000905550508080610c1e906112cd565b915050610bd4565b50600060038190555060008060146101000a81548160ff02191690831515021790555060008060156101000a81548160ff021916908315150217905550565b60008054906101000a900473ffffffffffffffffffffffffffffffffffffffff1681565b508054610c959061141c565b6000825580601f10610ca75750610cc6565b601f016020900490600052602060002090810190610cc59190610cc9565b5b50565b5b80821115610ce2576000816000905550600101610cca565b5090565b6000604051905090565b600080fd5b600080fd5b6000819050919050565b610d0d81610cfa565b8114610d1857600080fd5b50565b600081359050610d2a81610d04565b92915050565b600060208284031215610d4657610d45610cf0565b5b6000610d5484828501610d1b565b91505092915050565b600073ffffffffffffffffffffffffffffffffffffffff82169050919050565b6000610d8882610d5d565b9050919050565b610d9881610d7d565b8114610da357600080fd5b50565b600081359050610db581610d8f565b92915050565b600060208284031215610dd157610dd0610cf0565b5b6000610ddf84828501610da6565b91505092915050565b60008115159050919050565b610dfd81610de8565b82525050565b6000602082019050610e186000830184610df4565b92915050565b610e2781610cfa565b82525050565b6000602082019050610e426000830184610e1e565b92915050565b600081519050919050565b600082825260208201905092915050565b60005b83811015610e82578082015181840152602081019050610e67565b60008484015250505050565b6000601f19601f8301169050919050565b6000610eaa82610e48565b610eb48185610e53565b9350610ec4818560208601610e64565b610ecd81610e8e565b840191505092915050565b6000606082019050610eed6000830186610e1e565b8181036020830152610eff8185610e9f565b9050610f0e6040830184610e1e565b949350505050565b600080fd5b600080fd5b7f4e487b7100000000000000000000000000000000000000000000000000000000600052604160045260246000fd5b610f5882610e8e565b810181811067ffffffffffffffff82111715610f7757610f76610f20565b5b80604052505050565b6000610f8a610ce6565b9050610f968282610f4f565b919050565b600067ffffffffffffffff821115610fb657610fb5610f20565b5b610fbf82610e8e565b9050602081019050919050565b82818337600083830152505050565b6000610fee610fe984610f9b565b610f80565b90508281526020810184848401111561100a57611009610f1b565b5b611015848285610fcc565b509392505050565b600082601f83011261103257611031610f16565b5b8135611042848260208601610fdb565b91505092915050565b60006020828403121561106157611060610cf0565b5b600082013567ffffffffffffffff81111561107f5761107e610cf5565b5b61108b8482850161101d565b91505092915050565b600060408201905081810360008301526110ae8185610e9f565b90506110bd6020830184610e1e565b9392505050565b6110cd81610d7d565b82525050565b60006020820190506110e860008301846110c4565b92915050565b7f566f74696e6720686173206e6f74207374617274656400000000000000000000600082015250565b6000611124601683610e53565b915061112f826110ee565b602082019050919050565b6000602082019050818103600083015261115381611117565b9050919050565b7f566f74696e672068617320656e64656400000000000000000000000000000000600082015250565b6000611190601083610e53565b915061119b8261115a565b602082019050919050565b600060208201905081810360008301526111bf81611183565b9050919050565b7f596f7520616c726561647920766f746564000000000000000000000000000000600082015250565b60006111fc601183610e53565b9150611207826111c6565b602082019050919050565b6000602082019050818103600083015261122b816111ef565b9050919050565b7f496e76616c69642063616e646964617465000000000000000000000000000000600082015250565b6000611268601183610e53565b915061127382611232565b602082019050919050565b600060208201905081810360008301526112978161125b565b9050919050565b7f4e487b7100000000000000000000000000000000000000000000000000000000600052601160045260246000fd5b60006112d882610cfa565b91507fffffffffffffffffffffffffffffffffffffffffffffffffffffffffffffffff820361130a5761130961129e565b5b600182019050919050565b7f4f6e6c792061646d696e2063616e20646f207468697300000000000000000000600082015250565b600061134b601683610e53565b915061135682611315565b602082019050919050565b6000602082019050818103600083015261137a8161133e565b9050919050565b7f4e656564206174206c656173742074776f2063616e6469646174657300000000600082015250565b60006113b7601c83610e53565b91506113c282611381565b602082019050919050565b600060208201905081810360008301526113e6816113aa565b9050919050565b7f4e487b7100000000000000000000000000000000000000000000000000000000600052602260045260246000fd5b6000600282049050600182168061143457607f821691505b602082108103611447576114466113ed565b5b50919050565b7f566f74696e6720616c7265616479207374617274656400000000000000000000600082015250565b6000611483601683610e53565b915061148e8261144d565b602082019050919050565b600060208201905081810360008301526114b281611476565b9050919050565b60008190508160005260206000209050919050565b60006020601f8301049050919050565b600082821b905092915050565b60006008830261151b7fffffffffffffffffffffffffffffffffffffffffffffffffffffffffffffffff826114de565b61152586836114de565b95508019841693508086168417925050509392505050565b6000819050919050565b600061156261155d61155884610cfa565b61153d565b610cfa565b9050919050565b6000819050919050565b61157c83611547565b61159061158882611569565b8484546114eb565b825550505050565b600090565b6115a5611598565b6115b0818484611573565b505050565b5b818110156115d4576115c960008261159d565b6001810190506115b6565b5050565b601f821115611619576115ea816114b9565b6115f3846114ce565b81016020851015611602578190505b61161661160e856114ce565b8301826115b5565b50505b505050565b600082821c905092915050565b600061163c6000198460080261161e565b1980831691505092915050565b6000611655838361162b565b9150826002028217905092915050565b61166e82610e48565b67ffffffffffffffff81111561168757611686610f20565b5b611691825461141c565b61169c8282856115d8565b600060209050601f8311600181146116cf57600084156116bd578287015190505b6116c78582611649565b86555061172f565b601f1984166116dd866114b9565b60005b82811015611705578489015182556001820191506020850194506020810190506116e0565b86831015611722578489015161171e601f89168261162b565b8355505b6001600288020188555050505b505050505050565b7f566f74696e6720686173206e6f7420656e646564207965740000000000000000600082015250565b600061176d601883610e53565b915061177882611737565b602082019050919050565b6000602082019050818103600083015261179c81611760565b9050919050565b7f4e6f20766f7465732068617665206265656e2063617374000000000000000000600082015250565b60006117d9601783610e53565b91506117e4826117a3565b602082019050919050565b60006020820190508181036000830152611808816117cc565b905091905056fea2646970667358221220716764adab82714b93c1a0e4bb9c2eed4932191a7af9cae3ce82a94babc8fa9164736f6c634300081c0033",
  "linkReferences": {},
  "deployedLinkReferences": {}
}