{
  "_format": "hh-sol-artifact-1",
  "contractName": "Voting",
  "sourceName": "contracts/Voting.sol",
  "abi": [
    {
      "inputs": [],
      "stateMutability": "nonpayable",
      "type": "constructor"
    },
    {
      "inputs": [
        {
          "internalType": "string",
          "name": "_name",
          "type": "string"
        }
      ],
      "name": "addCandidate",
      "outputs": [],
      "stateMutability": "nonpayable",
      "type": "function"
    },
    {
      "inputs": [],
      "name": "admin",
      "outputs": [
        {
          "internalType": "address",
          "name": "",
          "type": "address"
        }
      ],
      "stateMutability": "view",
      "type": "function"
    },
    {
      "inputs": [
        {
          "internalType": "uint256",
          "name": "",
          "type": "uint256"
        }
      ],
      "name": "candidates",
      "outputs": [
        {
          "internalType": "uint256",
          "name": "id",
          "type": "uint256"
        },
        {
          "internalType": "string",
          "name": "name",
          "type": "string"
        },
        {
          "internalType": "uint256",
          "name": "voteCount",
          "type": "uint256"
        }
      ],
      "stateMutability": "view",
      "type": "function"
    },
    {
      "inputs": [],
      "name": "candidatesCount",
      "outputs": [
        {
          "internalType": "uint256",
          "name": "",
          "type": "uint256"
        }
      ],
      "stateMutability": "view",
      "type": "function"
    },
    {
      "inputs": [],
      "name": "electionId",
      "outputs": [
        {
          "internalType": "uint256",
          "name": "",
          "type": "uint256"
        }
      ],
      "stateMutability": "view",
      "type": "function"
    },
    {
      "inputs": [],
      "name": "endVoting",
      "outputs": [],
      "stateMutability": "nonpayable",
      "type": "function"
    },
    {
      "inputs": [
        {
          "internalType": "uint256",
          "name": "_id",
          "type": "uint256"
        }
      ],
      "name": "getCandidate",
      "outputs": [
        {
          "internalType": "uint256",
          "name": "",
          "type": "uint256"
        },
        {
          "internalType": "string",
          "name": "",
          "type": "string"
        },
        {
          "internalType": "uint256",
          "name": "",
          "type": "uint256"
        }
      ],
      "stateMutability": "view",
      "type": "function"
    },
    {
      "inputs": [],
      "name": "getWinner",
      "outputs": [
        {
          "internalType": "string",
          "name": "winnerName",
          "type": "string"
        },
        {
          "internalType": "uint256",
          "name": "winnerVotes",
          "type": "uint256"
        }
      ],
      "stateMutability": "view",
      "type": "function"
    },
    {
      "inputs": [
        {
          "internalType": "address",
          "name": "",
          "type": "address"
        }
      ],
      "name": "lastVotedElection",
      "outputs": [
        {
          "internalType": "uint256",
          "name": "",
          "type": "uint256"
        }
      ],
      "stateMutability": "view",
      "type": "function"
    },
    {
      "inputs": [],
      "name": "resetElection",
      "outputs": [],
      "stateMutability": "nonpayable",
      "type": "function"
    },
    {
      "inputs": [],
      "name": "startVoting",
      "outputs": [],
      "stateMutability": "nonpayable",
      "type": "function"
    },
    {
      "inputs": [
        {
          "internalType": "uint256",
          "name": "_candidateId",
          "type": "uint256"
        }
      ],
      "name": "vote",
      "outputs": [],
      "stateMutability": "nonpayable",
      "type": "function"
    },
    {
      "inputs": [],
      "name": "votingEnded",
      "outputs": [
        {
          "internalType": "bool",
          "name": "",
          "type": "bool"
        }
      ],
      "stateMutability": "view",
      "type": "function"
    },
    {
      "inputs": [],
      "name": "votingStarted",
      "outputs": [
        {
          "internalType": "bool",
          "name": "",
          "type": "bool"
        }
      ],
      "stateMutability": "view",
      "type": "function"
    }
  ],
  "bytecode": "0x6080604052348015600f57600080fd5b50336000806101000a81548173ffffffffffffffffffffffffffffffffffffffff021916908373ffffffffffffffffffffffffffffffffffffffff16021790555060018081905550611892806100666000396000f3fe608060405234801561001057600080fd5b50600436106100ea5760003560e01c8063462e91ec1161008c5780639d5a0529116100665780639d5a05291461023e578063c3403ddf1461025c578063e8f3052314610266578063f851a44014610270576100ea565b8063462e91ec146101e557806383d948b7146102015780638e7ea5b21461021f576100ea565b80631ec6b60a116100c85780631ec6b60a146101595780632d35a8a2146101635780633477ee2e1461018157806335b8e820146101b3576100ea565b80630121b93f146100ef578063051364d41461010b5780630ee012e614610129575b600080fd5b61010960048036038101906101049190610d7d565b61028e565b005b610113610476565b6040516101209190610db9565b60405180910390f35b610143600480360381019061013e9190610e32565b61047c565b6040516101509190610db9565b60405180910390f35b610161610494565b005b61016b61059f565b6040516101789190610db9565b60405180910390f35b61019b60048036038101906101969190610d7d565b6105a5565b6040516101aa93929190610eef565b60405180910390f35b6101cd60048036038101906101c89190610d7d565b610657565b6040516101dc93929190610eef565b60405180910390f35b6101ff60048036038101906101fa9190611062565b610741565b005b61020961089a565b60405161021691906110c6565b60405180910390f35b6102276108ad565b6040516102359291906110e1565b60405180910390f35b610246610a67565b60405161025391906110c6565b60405180910390f35b610264610a7a565b005b61026e610b74565b005b610278610cb2565b6040516102859190611120565b60405180910390f35b600060149054906101000a900460ff166102dd576040517f08c379a00000000000000000000000000000000000000000000000000000000081526004016102d490611187565b60405180910390fd5b600060159054906101000a900460ff161561032d576040517f08c379a0000000000000000000000000000000000000000000000000000000008152600401610324906111f3565b60405180910390fd5b600154600360003373ffffffffffffffffffffffffffffffffffffffff1673ffffffffffffffffffffffffffffffffffffffff16815260200190815260200160002054036103b0576040517f08c379a00000000000000000000000000000000000000000000000000000000081526004016103a79061125f565b60405180910390fd5b6000811180156103c257506004548111155b610401576040517f08c379a00000000000000000000000000000000000000000000000000000000081526004016103f8906112cb565b60405180910390fd5b600154600360003373ffffffffffffffffffffffffffffffffffffffff1673ffffffffffffffffffffffffffffffffffffffff1681526020019081526020016000208190555060026000828152602001908152602001600020600201600081548092919061046e9061131a565b919050555050565b60015481565b60036020528060005260406000206000915090505481565b60008054906101000a900473ffffffffffffffffffffffffffffffffffffffff1673ffffffffffffffffffffffffffffffffffffffff163373ffffffffffffffffffffffffffffffffffffffff1614610522576040517f08c379a0000000000000000000000000000000000000000000000000000000008152600401610519906113ae565b60405180910390fd5b60026004541015610568576040517f08c379a000000000000000000000000000000000000000000000000000000000815260040161055f9061141a565b60405180910390fd5b6001600060146101000a81548160ff02191690831515021790555060008060156101000a81548160ff021916908315150217905550565b60045481565b60026020528060005260406000206000915090508060000154908060010180546105ce90611469565b80601f01602080910402602001604051908101604052809291908181526020018280546105fa90611469565b80156106475780601f1061061c57610100808354040283529160200191610647565b820191906000526020600020905b81548152906001019060200180831161062a57829003601f168201915b5050505050908060020154905083565b60006060600080600260008681526020019081526020016000206040518060600160405290816000820154815260200160018201805461069690611469565b80601f01602080910402602001604051908101604052809291908181526020018280546106c290611469565b801561070f5780601f106106e45761010080835404028352916020019161070f565b820191906000526020600020905b8154815290600101906020018083116106f257829003601f168201915b505050505081526020016002820154815250509050806000015181602001518260400151935093509350509193909250565b60008054906101000a900473ffffffffffffffffffffffffffffffffffffffff1673ffffffffffffffffffffffffffffffffffffffff163373ffffffffffffffffffffffffffffffffffffffff16146107cf576040517f08c379a00000000000000000000000000000000000000000000000000000000081526004016107c6906113ae565b60405180910390fd5b600060149054906101000a900460ff161561081f576040517f08c379a0000000000000000000000000000000000000000000000000000000008152600401610816906114e6565b60405180910390fd5b600460008154809291906108329061131a565b919050555060405180606001604052806004548152602001828152602001600081525060026000600454815260200190815260200160002060008201518160000155602082015181600101908161088991906116b2565b506040820151816002015590505050565b600060149054906101000a900460ff1681565b606060008060159054906101000a900460ff166108ff576040517f08c379a00000000000000000000000000000000000000000000000000000000081526004016108f6906117d0565b60405180910390fd5b6000806000600190505b600454811161096057826002600083815260200190815260200160002060020154111561094d57600260008281526020019081526020016000206002015492508091505b80806109589061131a565b915050610909565b50600081036109a4576040517f08c379a000000000000000000000000000000000000000000000000000000000815260040161099b9061183c565b60405180910390fd5b6002600082815260200190815260200160002060010160026000838152602001908152602001600020600201548180546109dd90611469565b80601f0160208091040260200160405190810160405280929190818152602001828054610a0990611469565b8015610a565780601f10610a2b57610100808354040283529160200191610a56565b820191906000526020600020905b815481529060010190602001808311610a3957829003601f168201915b505050505091509350935050509091565b600060159054906101000a900460ff1681565b60008054906101000a900473ffffffffffffffffffffffffffffffffffffffff1673ffffffffffffffffffffffffffffffffffffffff163373ffffffffffffffffffffffffffffffffffffffff1614610b08576040517f08c379a0000000000000000000000000000000000000000000000000000000008152600401610aff906113ae565b60405180910390fd5b600060149054906101000a900460ff16610b57576040517f08c379a0000000000000000000000000000000000000000000000000000000008152600401610b4e90611187565b60405180910390fd5b6001600060156101000a81548160ff021916908315150217905550565b60008054906101000a900473ffffffffffffffffffffffffffffffffffffffff1673ffffffffffffffffffffffffffffffffffffffff163373ffffffffffffffffffffffffffffffffffffffff1614610c02576040517f08c379a0000000000000000000000000000000000000000000000000000000008152600401610bf9906113ae565b60405180910390fd5b6000600190505b6004548111610c5b5760026000828152602001908152602001600020600080820160009055600182016000610c3e9190610cd6565b600282016000905550508080610c539061131a565b915050610c09565b50600060048190555060008060146101000a81548160ff02191690831515021790555060008060156101000a81548160ff02191690831515021790555060016000815480929190610cab9061131a565b9190505550565b60008054906101000a900473ffffffffffffffffffffffffffffffffffffffff1681565b508054610ce290611469565b6000825580601f10610cf45750610d13565b601f016020900490600052602060002090810190610d129190610d16565b5b50565b5b80821115610d2f576000816000905550600101610d17565b5090565b6000604051905090565b600080fd5b600080fd5b6000819050919050565b610d5a81610d47565b8114610d6557600080fd5b50565b600081359050610d7781610d51565b92915050565b600060208284031215610d9357610d92610d3d565b5b6000610da184828501610d68565b91505092915050565b610db381610d47565b82525050565b6000602082019050610dce6000830184610daa565b92915050565b600073ffffffffffffffffffffffffffffffffffffffff82169050919050565b6000610dff82610dd4565b9050919050565b610e0f81610df4565b8114610e1a57600080fd5b50565b600081359050610e2c81610e06565b92915050565b600060208284031215610e4857610e47610d3d565b5b6000610e5684828501610e1d565b91505092915050565b600081519050919050565b600082825260208201905092915050565b60005b83811015610e99578082015181840152602081019050610e7e565b60008484015250505050565b6000601f19601f8301169050919050565b6000610ec182610e5f565b610ecb8185610e6a565b9350610edb818560208601610e7b565b610ee481610ea5565b840191505092915050565b6000606082019050610f046000830186610daa565b8181036020830152610f168185610eb6565b9050610f256040830184610daa565b949350505050565b600080fd5b600080fd5b7f4e487b7100000000000000000000000000000000000000000000000000000000600052604160045260246000fd5b610f6f82610ea5565b810181811067ffffffffffffffff82111715610f8e57610f8d610f37565b5b80604052505050565b6000610fa1610d33565b9050610fad8282610f66565b919050565b600067ffffffffffffffff821115610fcd57610fcc610f37565b5b610fd682610ea5565b9050602081019050919050565b82818337600083830152505050565b600061100561100084610fb2565b610f97565b90508281526020810184848401111561102157611020610f32565b5b61102c848285610fe3565b509392505050565b600082601f83011261104957611048610f2d565b5b8135611059848260208601610ff2565b91505092915050565b60006020828403121561107857611077610d3d565b5b600082013567ffffffffffffffff81111561109657611095610d42565b5b6110a284828501611034565b91505092915050565b60008115159050919050565b6110c0816110ab565b82525050565b60006020820190506110db60008301846110b7565b92915050565b600060408201905081810360008301526110fb8185610eb6565b905061110a6020830184610daa565b9392505050565b61111a81610df4565b82525050565b60006020820190506111356000830184611111565b92915050565b7f566f74696e6720686173206e6f74207374617274656400000000000000000000600082015250565b6000611171601683610e6a565b915061117c8261113b565b602082019050919050565b600060208201905081810360008301526111a081611164565b9050919050565b7f566f74696e672068617320656e64656400000000000000000000000000000000600082015250565b60006111dd601083610e6a565b91506111e8826111a7565b602082019050919050565b6000602082019050818103600083015261120c816111d0565b9050919050565b7f596f7520616c726561647920766f746564000000000000000000000000000000600082015250565b6000611249601183610e6a565b915061125482611213565b602082019050919050565b600060208201905081810360008301526112788161123c565b9050919050565b7f496e76616c69642063616e646964617465000000000000000000000000000000600082015250565b60006112b5601183610e6a565b91506112c08261127f565b602082019050919050565b600060208201905081810360008301526112e4816112a8565b9050919050565b7f4e487b7100000000000000000000000000000000000000000000000000000000600052601160045260246000fd5b600061132582610d47565b91507fffffffffffffffffffffffffffffffffffffffffffffffffffffffffffffffff8203611357576113566112eb565b5b600182019050919050565b7f4f6e6c792061646d696e2063616e20646f207468697300000000000000000000600082015250565b6000611398601683610e6a565b91506113a382611362565b602082019050919050565b600060208201905081810360008301526113c78161138b565b9050919050565b7f4e656564206174206c656173742074776f2063616e6469646174657300000000600082015250565b6000611404601c83610e6a565b915061140f826113ce565b602082019050919050565b60006020820190508181036000830152611433816113f7565b9050919050565b7f4e487b7100000000000000000000000000000000000000000000000000000000600052602260045260246000fd5b6000600282049050600182168061148157607f821691505b6020821081036114945761149361143a565b5b50919050565b7f566f74696e6720616c7265616479207374617274656400000000000000000000600082015250565b60006114d0601683610e6a565b91506114db8261149a565b602082019050919050565b600060208201905081810360008301526114ff816114c3565b9050919050565b60008190508160005260206000209050919050565b60006020601f8301049050919050565b600082821b905092915050565b6000600883026115687fffffffffffffffffffffffffffffffffffffffffffffffffffffffffffffffff8261152b565b611572868361152b565b95508019841693508086168417925050509392505050565b6000819050919050565b60006115af6115aa6115a584610d47565b61158a565b610d47565b9050919050565b6000819050919050565b6115c983611594565b6115dd6115d5826115b6565b848454611538565b825550505050565b600090565b6115f26115e5565b6115fd8184846115c0565b505050565b5b81811015611621576116166000826115ea565b600181019050611603565b5050565b601f8211156116665761163781611506565b6116408461151b565b8101602085101561164f578190505b61166361165b8561151b565b830182611602565b50505b505050565b600082821c905092915050565b60006116896000198460080261166b565b1980831691505092915050565b60006116a28383611678565b9150826002028217905092915050565b6116bb82610e5f565b67ffffffffffffffff8111156116d4576116d3610f37565b5b6116de8254611469565b6116e9828285611625565b600060209050601f83116001811461171c576000841561170a578287015190505b6117148582611696565b86555061177c565b601f19841661172a86611506565b60005b828110156117525784890151825560018201915060208501945060208101905061172d565b8683101561176f578489015161176b601f891682611678565b8355505b6001600288020188555050505b505050505050565b7f566f74696e6720686173206e6f7420656e646564207965740000000000000000600082015250565b60006117ba601883610e6a565b91506117c582611784565b602082019050919050565b600060208201905081810360008301526117e9816117ad565b9050919050565b7f4e6f20766f7465732068617665206265656e2063617374000000000000000000600082015250565b6000611826601783610e6a565b9150611831826117f0565b602082019050919050565b6000602082019050818103600083015261185581611819565b905091905056fea26469706673582212205f9fbac5cb9ee606a670013ac714ec85f13f46eb5e0fe8f8c1a597f7f5d6bbf364736f6c634300081c0033",
  "linkReferences": {},
  "deployedLinkReferences": {}
}